{
  "contractName": "MedicalTrans",
  "abi": [
    {
      "constant": false,
      "inputs": [
        {
          "internalType": "string",
          "name": "_fullname",
          "type": "string"
        },
        {
          "internalType": "string",
          "name": "aGe",
          "type": "string"
        },
        {
          "internalType": "string",
          "name": "data",
          "type": "string"
        },
        {
          "internalType": "string",
          "name": "_medicaldataExp",
          "type": "string"
        },
        {
          "internalType": "string",
          "name": "_keyN",
          "type": "string"
        }
      ],
      "name": "sendMedicalData",
      "outputs": [],
      "payable": false,
      "stateMutability": "nonpayable",
      "type": "function"
    },
    {
      "constant": true,
      "inputs": [],
      "name": "getMedicalData",
      "outputs": [
        {
          "internalType": "address",
          "name": "_snder",
          "type": "address"
        },
        {
          "internalType": "string",
          "name": "_fullname",
          "type": "string"
        },
        {
          "internalType": "string",
          "name": "_age",
          "type": "string"
        },
        {
          "internalType": "string",
          "name": "_medicaldata",
          "type": "string"
        },
        {
          "internalType": "string",
          "name": "_medicaldataExp",
          "type": "string"
        },
        {
          "internalType": "string",
          "name": "_keyN",
          "type": "string"
        }
      ],
      "payable": false,
      "stateMutability": "view",
      "type": "function"
    },
    {
      "constant": false,
      "inputs": [
        {
          "internalType": "string",
          "name": "_results",
          "type": "string"
        },
        {
          "internalType": "string",
          "name": "_rExpo",
          "type": "string"
        }
      ],
      "name": "sendResults",
      "outputs": [],
      "payable": false,
      "stateMutability": "nonpayable",
      "type": "function"
    },
    {
      "constant": true,
      "inputs": [],
      "name": "getResults",
      "outputs": [
        {
          "internalType": "address",
          "name": "_snder",
          "type": "address"
        },
        {
          "internalType": "string",
          "name": "_results",
          "type": "string"
        },
        {
          "internalType": "string",
          "name": "_rExpo",
          "type": "string"
        }
      ],
      "payable": false,
      "stateMutability": "view",
      "type": "function"
    }
  ],
  "bytecode": "0x608060405234801561001057600080fd5b50610f0c806100206000396000f3fe608060405234801561001057600080fd5b506004361061004c5760003560e01c80631a3aba2814610051578063429b068f146101a35780634717f97c14610409578063ed2498aa1461052b575b600080fd5b6101a16004803603604081101561006757600080fd5b810190808035906020019064010000000081111561008457600080fd5b82018360208201111561009657600080fd5b803590602001918460018302840111640100000000831117156100b857600080fd5b91908080601f016020809104026020016040519081016040528093929190818152602001838380828437600081840152601f19601f8201169050808301925050505050505091929192908035906020019064010000000081111561011b57600080fd5b82018360208201111561012d57600080fd5b8035906020019184600183028401116401000000008311171561014f57600080fd5b91908080601f016020809104026020016040519081016040528093929190818152602001838380828437600081840152601f19601f820116905080830192505050505050509192919290505050610842565b005b6101ab6108b4565b604051808773ffffffffffffffffffffffffffffffffffffffff1673ffffffffffffffffffffffffffffffffffffffff168152602001806020018060200180602001806020018060200186810386528b818151815260200191508051906020019080838360005b8381101561022d578082015181840152602081019050610212565b50505050905090810190601f16801561025a5780820380516001836020036101000a031916815260200191505b5086810385528a818151815260200191508051906020019080838360005b83811015610293578082015181840152602081019050610278565b50505050905090810190601f1680156102c05780820380516001836020036101000a031916815260200191505b50868103845289818151815260200191508051906020019080838360005b838110156102f95780820151818401526020810190506102de565b50505050905090810190601f1680156103265780820380516001836020036101000a031916815260200191505b50868103835288818151815260200191508051906020019080838360005b8381101561035f578082015181840152602081019050610344565b50505050905090810190601f16801561038c5780820380516001836020036101000a031916815260200191505b50868103825287818151815260200191508051906020019080838360005b838110156103c55780820151818401526020810190506103aa565b50505050905090810190601f1680156103f25780820380516001836020036101000a031916815260200191505b509b50505050505050505050505060405180910390f35b610411610c0a565b604051808473ffffffffffffffffffffffffffffffffffffffff1673ffffffffffffffffffffffffffffffffffffffff1681526020018060200180602001838103835285818151815260200191508051906020019080838360005b8381101561048757808201518184015260208101905061046c565b50505050905090810190601f1680156104b45780820380516001836020036101000a031916815260200191505b50838103825284818151815260200191508051906020019080838360005b838110156104ed5780820151818401526020810190506104d2565b50505050905090810190601f16801561051a5780820380516001836020036101000a031916815260200191505b509550505050505060405180910390f35b610840600480360360a081101561054157600080fd5b810190808035906020019064010000000081111561055e57600080fd5b82018360208201111561057057600080fd5b8035906020019184600183028401116401000000008311171561059257600080fd5b91908080601f016020809104026020016040519081016040528093929190818152602001838380828437600081840152601f19601f820116905080830192505050505050509192919290803590602001906401000000008111156105f557600080fd5b82018360208201111561060757600080fd5b8035906020019184600183028401116401000000008311171561062957600080fd5b91908080601f016020809104026020016040519081016040528093929190818152602001838380828437600081840152601f19601f8201169050808301925050505050505091929192908035906020019064010000000081111561068c57600080fd5b82018360208201111561069e57600080fd5b803590602001918460018302840111640100000000831117156106c057600080fd5b91908080601f016020809104026020016040519081016040528093929190818152602001838380828437600081840152601f19601f8201169050808301925050505050505091929192908035906020019064010000000081111561072357600080fd5b82018360208201111561073557600080fd5b8035906020019184600183028401116401000000008311171561075757600080fd5b91908080601f016020809104026020016040519081016040528093929190818152602001838380828437600081840152601f19601f820116905080830192505050505050509192919290803590602001906401000000008111156107ba57600080fd5b8201836020820111156107cc57600080fd5b803590602001918460018302840111640100000000831117156107ee57600080fd5b91908080601f016020809104026020016040519081016040528093929190818152602001838380828437600081840152601f19601f820116905080830192505050505050509192919290505050610d78565b005b336000806101000a81548173ffffffffffffffffffffffffffffffffffffffff021916908373ffffffffffffffffffffffffffffffffffffffff1602179055508160069080519060200190610898929190610e32565b5080600790805190602001906108af929190610e32565b505050565b600060608060608060606000809054906101000a900473ffffffffffffffffffffffffffffffffffffffff1660016002600360046005848054600181600116156101000203166002900480601f01602080910402602001604051908101604052809291908181526020018280546001816001161561010002031660029004801561097f5780601f106109545761010080835404028352916020019161097f565b820191906000526020600020905b81548152906001019060200180831161096257829003601f168201915b50505050509450838054600181600116156101000203166002900480601f016020809104026020016040519081016040528092919081815260200182805460018160011615610100020316600290048015610a1b5780601f106109f057610100808354040283529160200191610a1b565b820191906000526020600020905b8154815290600101906020018083116109fe57829003601f168201915b50505050509350828054600181600116156101000203166002900480601f016020809104026020016040519081016040528092919081815260200182805460018160011615610100020316600290048015610ab75780601f10610a8c57610100808354040283529160200191610ab7565b820191906000526020600020905b815481529060010190602001808311610a9a57829003601f168201915b50505050509250818054600181600116156101000203166002900480601f016020809104026020016040519081016040528092919081815260200182805460018160011615610100020316600290048015610b535780601f10610b2857610100808354040283529160200191610b53565b820191906000526020600020905b815481529060010190602001808311610b3657829003601f168201915b50505050509150808054600181600116156101000203166002900480601f016020809104026020016040519081016040528092919081815260200182805460018160011615610100020316600290048015610bef5780601f10610bc457610100808354040283529160200191610bef565b820191906000526020600020905b815481529060010190602001808311610bd257829003601f168201915b50505050509050955095509550955095509550909192939495565b60006060806000809054906101000a900473ffffffffffffffffffffffffffffffffffffffff1660066007818054600181600116156101000203166002900480601f016020809104026020016040519081016040528092919081815260200182805460018160011615610100020316600290048015610cca5780601f10610c9f57610100808354040283529160200191610cca565b820191906000526020600020905b815481529060010190602001808311610cad57829003601f168201915b50505050509150808054600181600116156101000203166002900480601f016020809104026020016040519081016040528092919081815260200182805460018160011615610100020316600290048015610d665780601f10610d3b57610100808354040283529160200191610d66565b820191906000526020600020905b815481529060010190602001808311610d4957829003601f168201915b50505050509050925092509250909192565b336000806101000a81548173ffffffffffffffffffffffffffffffffffffffff021916908373ffffffffffffffffffffffffffffffffffffffff1602179055508460019080519060200190610dce929190610e32565b508360029080519060200190610de5929190610e32565b508260039080519060200190610dfc929190610e32565b508160049080519060200190610e13929190610e32565b508060059080519060200190610e2a929190610e32565b505050505050565b828054600181600116156101000203166002900490600052602060002090601f016020900481019282601f10610e7357805160ff1916838001178555610ea1565b82800160010185558215610ea1579182015b82811115610ea0578251825591602001919060010190610e85565b5b509050610eae9190610eb2565b5090565b610ed491905b80821115610ed0576000816000905550600101610eb8565b5090565b9056fea265627a7a72315820221f4b048222e6f7522d08c620de43d1f8af2b67b4caf218c1fc5cca189dbb1564736f6c63430005100032",
  "source": "// SPDX-License-Identifier: MIT\r\n\r\n pragma solidity >=0.4.21 <0.8.20;\r\n\r\ncontract MedicalTrans {\r\n  address sender;\r\n  string fullname;\r\n  string age;\r\n  string medicaldata;\r\n  string medicaldataExp;\r\n  string keyN;\r\n  string results;\r\n  string rExpo; \r\n  \r\n        function sendMedicalData(string memory _fullname,string memory aGe,string memory data,string memory _medicaldataExp,string memory _keyN) public {\r\n\r\n          sender = msg.sender;\r\n          fullname = _fullname;\r\n          age = aGe;\r\n          medicaldata = data;\r\n          medicaldataExp= _medicaldataExp; \r\n          keyN =_keyN;\r\n            }   \r\n\r\n        function getMedicalData() public view  returns(\r\n                  address _snder, string memory _fullname,string memory _age,string memory _medicaldata,string memory _medicaldataExp,string memory _keyN){\r\n        return(sender ,fullname,age,medicaldata,medicaldataExp,keyN);\r\n     }\r\n     \r\n\r\n\r\n\r\n \r\n  function sendResults(string memory _results,string memory _rExpo) public {\r\n\r\n          sender = msg.sender;\r\n          results = _results;\r\n          rExpo = _rExpo;\r\n          }   \r\n  function getResults() public view  returns(\r\n    address _snder, string memory _results ,string memory _rExpo){\r\n    return(sender ,results,rExpo);\r\n     }\r\n     \r\n\r\n\r\n\r\n\r\n\r\n\r\n\r\n}",
  "sourcePath": "C:\\Users\\azzou\\Desktop\\F\\myProject\\contracts\\MedicalTrans.sol",
  "compiler": {
    "name": "solc",
    "version": "0.5.16+commit.9c3226ce.Emscripten.clang"
  },
  "schemaVersion": "3.4.13",
  "updatedAt": "2023-06-19T08:01:09.689Z",
  "networkType": "ethereum",
  "devdoc": {
    "methods": {}
  },
  "userdoc": {
    "methods": {}
  }
}